:03000000020030CB
:0300030002004DAB
:0300130002006484
:03000B0002003EB2
:1000300012006C12007F1200AA1200B880FB758AB1
:10004000F0758CD8D53205D22285313232B22020DB
:10005000200FC28CD0E0D0E0743CC0E07400C0E05F
:1000600032D28C32302004B221B28C327590FFC271
:1000700020C221C2227531647532647581EF227508
:100080008901758AF0758CD8D288D28AD2A8D2AA72
:10009000D2A9D2ABC28DC28F119FD2AFC28C22D255
:1000A000B8C2B9D2BAC2BBC2BC22740075A0007873
:1000B00000F20804B408FA227400900000753008B9
:1000C0007590FF3022FDC222E02411F590A3D530B7
:0500D000F2753008226A
:00000001FF
