:03000000020030CB
:03000B0002003EB2
:1000300012004D12006112008012009080FE758A3D
:10004000F0758CD8D53205D222853132327590FFC9
:100050007530FEC22275316475326474007581EFAB
:1000600022758901758AF0758CD8D2A9C28D117557
:10007000D2AFD28C22C2B8C2B9C2BAC2BBC2BC22F1
:1000800011AB740075A0007800F20804B408FA22DD
:1000900011B075F00075A00078003022FDC222E298
:1000A000F5900805F0E5F0B408F022D2B7C2B62208
:0500B000C2B7D2B62228
:00000001FF
