:03000000020030CB
:03000B0002003BB5
:03001B0002004C94
:1000300012005112007612009580FE8A8B8B8DB2D1
:10004000A0758A18758CFCD2ABC28F32C2ABB2A03D
:10005000327590FF75A0FF740075F0007D0075810A
:10006000EF229000F1EC75F0001423F5F093FBE51E
:10007000F0240193FA22758911758A18758CFCC2D7
:100080008D118AD2AFD28ED28C22C2B8C2B9C2BA76
:10009000C2BBC2BC2220910211A02092F811C02242
:1000A0007400780090010593D2A9FC12006211D768
:1000B00011D008E8B41CF03091E6C2A9D2A0019595
:1000C000D2A97C051200623092FDC2A9D2A001958E
:1000D000D2A0C2A911E4227F047EC87DF8DDFEDE35
:1000E000FADFF6227F047EC87DF8DDFEDEFADFF659
:1000F00022FF9CFF38FED4FE70FE0CFDA8FD44FCE0
:10010000E0FC7CFC18010105050606050404030358
:1001100002020105050404030302050504040303A8
:0101200002DC
:00000001FF
