:03000000020030CB
:03000B00020038B8
:03001B0002004997
:1000300012004E12007480FE8E8B8F8DB2A0758AD6
:1000400018758CFCD2ABC28F32C2ABB2A0327590A5
:10005000FF740075F0007D007581EF7C0111602256
:10006000900095EC75F0001423F5F093FFE5F02473
:100070000193FE22758911758A18758CFCD2A9C26C
:100080008D118AD2AFD28ED28C22C2B8C2B9C2BA76
:10009000C2BBC2BC22FF9CFF38FED4FE70FE0CFD2A
:0900A000A8FD44FCE0FC7CFC1806
:00000001FF
