:03000000020030CB
:03000300020038C0
:0300130002003CAC
:1000300012004012005380FE1200983212006E32FD
:100040007590FF740075F0009000BE787F7581EFA9
:100050007CFF22D288C28AD2A8D2AA1160D2AF2253
:10006000D2B8D2BAC2BCC2BBC2B92220B3FD20B33F
:10007000FA93FCF59020B3101200B1E5F005F0B44E
:10008000070475F0002280E9740075F0007590FF98
:1000900020B3F580D920B2FD20B2FA93F59020B2BA
:1000A000FB1200B1E5F005F0B4070475F000228002
:1000B000EA7F037EC87DF8DDFEDEFADFF622FEFD74
:0600C000FBF7EFDFBF7F3C
:00000001FF
