:03000000020030CB
:0300030002004CAC
:0300130002005098
:03000B0002003BB5
:1000300012005312006B12009480FE758AF0758CCA
:10004000D8D53207B2A7D222853132321200C3325C
:10005000B221327590FF7530FEC220C221C22275D6
:10006000316475326474007581EF22758911758A67
:10007000F0758CD8D288D28AD2A8D2AAD2A9D2AB13
:10008000C28D1189D2AFD28C22C2B8C2B9D2BAC243
:10009000BBC2BC223022FDC222E530F59020210EE9
:1000A00020201623F530B4FE037530FE80E67590EF
:1000B000FF2021FA7530FE80DBF5902021F0202012
:0B00C000F880D1E53103547FF53122B8
:00000001FF
